:100000000C942A000C943C000C943C000C943C0092
:100010000C943C030C9413030C943C000C943C0093
:100020000C943C000C943C000C949A020C9430020A
:100030000C943C000C943C000C943C000C943C0050
:100040000C9458000C943C000C943C000C943C0024
:100050000C943C0011241FBECFE5D8E0DEBFCDBF1D
:1000600020E0A0E6B0E001C01D92A937B207E1F799
:100070000E94A8010C94CF030C94000087B18F73E9
:10008000806487B987B18F7D87B986B1806286B970
:1000900080B78F7180BF86B1876086B98FB780685F
:1000A0008FBF86B1886086B986B1806886B90895A9
:1000B0001F920F920FB60F9211240F900FBE0F9048
:1000C0001F901895442319F04130C9F108958130EB
:1000D00091F028F08230D9F0833029F108952AB3C5
:1000E00081E090E002C0880F991F6A95E2F7809541
:1000F00082238ABB089527B381E090E002C0880F75
:10010000991F6A95E2F78095822387BB089524B3EF
:1001100081E090E002C0880F991F6A95E2F7809510
:10012000822384BB089521B381E090E002C0880F50
:10013000991F6A95E2F78095822381BB08958130EB
:1001400089F028F08230C9F0833011F108952AB384
:1001500081E090E002C0880F991F6A95E2F7822B38
:100160008ABB089527B381E090E002C0880F991FF1
:100170006A95E2F7822B87BB089524B381E090E073
:1001800002C0880F991F6A95E2F7822B84BB0895FD
:1001900021B381E090E002C0880F991F6A95E2F7D1
:1001A000822B81BB08954423D9F1413009F06BC003
:1001B000813091F028F08230D9F0833029F1089510
:1001C0002BB381E090E002C0880F991F6A95E2F797
:1001D000809582238BBB089528B381E090E002C014
:1001E000880F991F6A95E2F78095822388BB08954E
:1001F00025B381E090E002C0880F991F6A95E2F76D
:100200008095822385BB089522B381E090E002C0EF
:10021000880F991F6A95E2F78095822382BB089523
:10022000813089F028F08230C9F0833011F10895CF
:100230002BB381E090E002C0880F991F6A95E2F726
:10024000822B8BBB089528B381E090E002C0880F19
:10025000991F6A95E2F7822B88BB089525B381E048
:1002600090E002C0880F991F6A95E2F7822B85BB48
:10027000089522B381E090E002C0880F991F6A952B
:10028000E2F7822B82BB0895813089F028F082301A
:10029000C9F0833011F108952BB381E090E002C0E2
:1002A000880F991F6A95E2F782278BBB089528B3C0
:1002B00081E090E002C0880F991F6A95E2F78227DB
:1002C00088BB089525B381E090E002C0880F991F94
:1002D0006A95E2F7822785BB089522B381E090E01A
:1002E00002C0880F991F6A95E2F7822782BB0895A2
:1002F00041E062E082E00E94620041E062E082E070
:100300000E94D300089562E082E00E9444010895B3
:1003100041E067E082E00E94620041E067E082E045
:100320000E94D300089567E082E00E94440108958E
:1003300041E063E083E00E94620041E063E083E02B
:100340000E94D300089563E083E00E944401089571
:100350000E943E000E94D3010E9478010E94880101
:100360000E9498010E942B0264EF71E080E090E00F
:100370000E94E0018091710090917200019711F448
:100380000E9483018091710090917200029711F494
:100390000E9493018091710090917200039751F730
:1003A0000E94A301E7CF8FB780688FBF83B7877F95
:1003B00083BF83B78F7B83BF89B7816089BF08956F
:1003C0000F931F939B01AC01A8EEB3E00E94B5030D
:1003D0008B019C01689415F836952795179507951C
:1003E0001694D1F7013041E014072105310560F47E
:1003F000802F81958093700082BF81E090E0909380
:1004000074008093730024C001110CC0AB01BC01C7
:10041000032E3EE076956795579547953A95D1F727
:10042000302D0DC0AB01BC01032E3EE076956795E3
:10043000579547953A95D1F7302D4F5F5F4F5093C1
:10044000740040937300802F81958093700082BF69
:100450001F910F91089583B7887F856083BF0895AA
:100460001F920F920FB60F9211242F933F938F93E9
:100470009F9380916A0090916B00019690936B001E
:1004800080936A0020917300309174002817390717
:1004900009F047C080916C008F5F80936C00982FAB
:1004A000937031F421E030E03093720020937100BA
:1004B0009DEC899F912D112496959695292F220FB9
:1004C000220F920F891306C022E030E030937200B1
:1004D000209371009BEA899F912D11249695969502
:1004E000292F220F920F292F220F821306C023E0FB
:1004F00030E030937200209371008C3311F410922D
:100500006C0080917700909178000196909378002C
:100510008093770010926B0010926A0080917000B7
:1005200082BF9F918F913F912F910F900FBE0F909F
:100530001F9018951F920F920FB60F9211244F9390
:100540005F936F937F938F939F93AF93BF938091AC
:10055000660090916700A0916800B09169000196D3
:10056000A11DB11D8093660090936700A093680061
:10057000B093690081309105A105B10501F5409165
:1005800073005091740060E070E084179507A6072F
:10059000B707A9F480917700909178000196909325
:1005A0007800809377001092660010926700109296
:1005B000680010926900809170008CBF27C0813064
:1005C0009105A105B10519F48FEF8CBF1FC04091B3
:1005D00073005091740060E070E084179507A607DF
:1005E000B707A1F4809177009091780001969093DD
:1005F0007800809377001092660010926700109246
:10060000680010926900809170008CBFBF91AF911B
:100610009F918F917F916F915F914F910F900FBE3E
:100620000F901F9018951F920F920FB60F921124E2
:100630002F933F938F939F938091640090916500D7
:100640000196909365008093640020916E00309134
:100650006F002817390739F4109265001092640072
:1006600080916D0084BD9F918F913F912F910F904C
:100670000FBE0F901F9018951F920F920FB60F92FA
:1006800011244F935F936F937F938F939F93AF93B7
:10069000BF938091600090916100A0916200B09141
:1006A00063000196A11DB11D8093600090936100CD
:1006B000A0936200B093630081309105A105B1055C
:1006C00001F540916E0050916F0060E070E084177A
:1006D0009507A607B707A9F4809175009091760059
:1006E00001969093760080937500109260001092AE
:1006F0006100109262001092630080916D0083BDD2
:1007000027C081309105A105B10519F48FEF83BD94
:100710001FC040916E0050916F0060E070E0841740
:100720009507A607B707A1F4809175009091760010
:10073000019690937600809375001092600010925D
:100740006100109262001092630080916D0083BD81
:10075000BF91AF919F918F917F916F915F914F91D9
:100760000F900FBE0F901F9018950E94C003A59F79
:10077000900DB49F900DA49F800D911D112408959C
:10078000A29FB001B39FC001A39F700D811D1124D2
:10079000911DB29F700D811D1124911D0895F89433
:0207A000FFCF89
:00000001FF
